:020000040800F2
:100000000050002021020008270200082B020008EF
:100010009D020008A1020008E9020008000000009B
:100020000000000000000000000000003103000894
:100030003503000800000000390300083D030008F4
:10004000B9090008B9090008B9090008B909000888
:10005000B9090008B9090008B9090008B909000878
:10006000B9090008B9090008B9090008B909000868
:10007000B9090008B9090008B9090008B909000858
:10008000B9090008B9090008B9090008B909000848
:10009000B9090008B9090008B9090008B909000838
:1000A000B9090008B9090008B9090008B909000828
:1000B000B9090008B9090008B9090008B909000818
:1000C000B9090008B9090008B9090008B909000808
:1000D000B9090008B9090008B9090008B9090008F8
:1000E0003D0C0008B9090008B9090008000000002B
:1000F0000000000000000000000000000000000000
:1001000000000000000000005FF808F100B583B0B7
:1001100000F0B8FB304B314A1360314A1360314B69
:10012000314A32498B4204D21168196004330432D7
:10013000F7E72A4B1A682E4B9A4200D0FEE7284B6D
:100140001A682C4B9A42F9D1234B2B4A13602B4A45
:1001500013602B4B02E000221A600433294A9342B9
:10016000F9D3254B1B6813B9244B1B6803B1FEE779
:1001700000F094FB694601A800F030FB224C234BB1
:10018000E41AA4100025AC4214DC214C214BE41AE3
:10019000A4100025AC4213DC0099019800F07EFC0D
:1001A00005461D4C1D4BE41AA410002C0EDC2846FD
:1001B00000F0F0FA154B53F8253098470135E2E787
:1001C000144B53F8253098470135E3E7013C134BB6
:1001D00053F824309847E8E7BABADECA0000002096
:1001E000640100200000002038160008680100208B
:1001F0007856341232547698680100202402002088
:10020000680100202802002074030008740300081D
:1002100074030008740300087403000874030008E2
:1002200008B5FFF773FF00BEFEE71EF0040F0CBF1A
:10023000EFF30880EFF309807146414A10472DE93A
:10024000F04182B004468846124B5E6B9F6B9D6AFC
:100250001B6B13F0020F03D00E4BDB6A002B0CDB81
:100260000D4800F0C3FACDF800803B4632462946DF
:10027000204600F017FB00BEFEE74BF6AB6100F036
:100280008BFB0028ECD0034B4FF00042DA6202B047
:10029000BDE8F08100ED00E0C815000800BEFEE7F3
:1002A0001EF0040F0CBFEFF30880EFF309807146D6
:1002B000244A10472DE9F04182B004468846084B95
:1002C0005E6B9F6B9D6A074800F090FACDF8008046
:1002D0003B4632462946204600F0E4FA00BEFEE7DF
:1002E00000ED00E0D81500081EF0040F0CBFEFF37E
:1002F0000880EFF309807146134A10472DE9F04159
:1003000082B004468846084B5E6B9F6B9D6A074827
:1003100000F06CFACDF800803B4632462946204674
:1003200000F0C0FA00BEFEE700ED00E0E4150008B2
:1003300000BEFEE700BEFEE700BEFEE7704700001D
:0C0340003F020008B5020008FD020008A2
:10034C00381600080000002068010020381600084C
:10035C00000000100000001068010020280200209E
:08036C00000000100000001069
:1003740010B504460E4B18784FF47A73B3FBF0F3C0
:100384000C4A1068B0FBF3F000F076F868B90F2C53
:1003940001D901200AE0002221464FF0FF3000F08D
:1003A40037F8054B1C60002000E0012010BD00BFA1
:1003B40004000020140000200800002008B5074AAB
:1003C400136843F010031360032000F00FF80020BB
:1003D400FFF7CEFF00F0E8FB002008BD002002403C
:1003E400014B1868704700BFFC010020074AD3681E
:1003F40023F4E0631B041B0C000200F4E0601843C8
:1004040040F0BF6040F40030D060704700ED00E081
:1004140030B4174BDB68C3F30223C3F10704042C85
:1004240028BF04241D1D062D18D9033B4FF0FF35AA
:1004340005FA04F421EA0401994005FA03F322EAD7
:100444000303194300280BDB0901C9B200F1604022
:1004540000F5614080F8001330BC70470023E5E7E5
:1004640000F00F000901C9B2024B1954F4E700BFB0
:1004740000ED00E014ED00E00138B0F1807F0AD215
:10048400064B5860064AF02182F823100020986039
:1004940007221A6070470120704700BF10E000E097
:1004A40000ED00E0044B0022DA61044A136943F0D2
:1004B4000103136101807047000200200020024004
:1004C4001A4BDB6813F0100F27D0194AD36943F095
:1004D4000203D3611023154AD26812F0040F06D028
:1004E4001349CA6942F00102CA6143F004030F4A86
:1004F400D26912F0010F09D00D49CA6942F0040211
:10050400CA610A49CA6922F00102CA6140F20112B1
:10051400934204D0054AD36070470023DBE7034AC3
:10052400D36923F00103D361704700BF0020024068
:10053400000200200A4B1B6913F0800F0DD0084BFA
:10054400084A5A6002F188325A601B6913F0800F1E
:1005540001D001207047002070470020704700BF81
:100564000020024023016745034A136943F08003D6
:1005740013610020704700BF0020024038B50446D4
:10058400FFF72EFF0546174BDB6813F0010F0AD067
:10059400B4F1FF3FF7D00CB3FFF722FF401BA0429A
:1005A400F1D9032019E00F4BDB6813F0200F02D0C0
:1005B4000C4B2022DA600B4BDB6813F0100F09D1CF
:1005C400084BDB6913F0010F04D1064BDB6813F011
:1005D400040F05D0FFF774FF012038BD0320FCE7AA
:1005E4000020FAE7002002402DE9F843234C247E42
:1005F400012C41D01E4690460F4604461F4B012253
:100604001A764CF25030FFF7B9FF034670BB012C49
:1006140029D0022C24D04FF0040900244C4525D2C3
:100624002101C1F12002A1F1200328FA01F106FA07
:1006340002F2114326FA03F3194389B207EB44008B
:10064400FFF730FF4CF25030FFF798FF0C4B1D6959
:1006540025F001051D61034640B90134E4B2DDE72C
:100664004FF00209D9E74FF00109D6E7034A002108
:1006740011761846BDE8F8830223FAE70002002049
:1006840000200240064B0022DA61064B1A6942F050
:1006940004021A611A6942F040021A61704700BFED
:1006A4000002002000200240064B0022DA61064BC3
:1006B4001A6942F002021A6158611A6942F0400252
:1006C4001A6170470002002000200240264B1B7E66
:1006D400012B46D070B50E460446234B01221A76F0
:1006E4000368022B20D04CF25030FFF747FF90BB39
:1006F4004FF0FF333360A5680122E168A36803EB80
:100704008123AB4228D92846FFF7CEFF4CF2503064
:10071400FFF734FF154A136923F0020313610246FD
:10072400B8B905F58065E8E74CF25030FFF726FFCD
:1007340008B1012210E00120FFF7A4FF4CF2503071
:10074400FFF71CFF024609490B6923F004030B6100
:1007540002E0356000E00122034B002119761046C7
:1007640070BD0222104670470002002000200240A3
:100774007047000008B5054B5B69034200D108BD12
:10078400024B5861FFF7F4FFF9E700BF0004014092
:10079400FEE7000008B503460C4A12685AB10B4A3A
:1007A4001068033323F003030344094A934206D831
:1007B400064A136008BD054A06491160EFE700F0D8
:1007C40041FA0C2303604FF0FF30F3E76C01002083
:1007D400004C00202802002001230360014B0B6021
:1007E400704700BF0C0000200FB400B583B004AB09
:1007F40053F8042B01938021064800F061FA002885
:1008040003DD0146034800F037F803B05DF804EB5C
:1008140004B07047740100202DE9F04385B004460C
:100824000F4643560BB10E461EE0042528462146CA
:10083400ABBE0446384605B0BDE8F08314F9011B8D
:1008440004AA1A4402F8101C0133AB42F6D304AADA
:100854001344002203F8102C4FF00408E9464046E4
:100864004946ABBE8046761B002EE3D03546102E9B
:1008740028BF10250023E8E708B5FFF7CDFF08BD22
:1008840008B500F099F8024A024B9A6008BD00BF0F
:100894000000000800ED00E008B500F0B3F808BD62
:1008A400F8B504460D4617461E462748FFF79CFF39
:1008B40021682648FFF798FF61682548FFF794FFF1
:1008C400A1682448FFF790FFE1682348FFF78CFFF5
:1008D40021692248FFF788FF61692148FFF784FFF7
:1008E400A1692048FFF780FFE1691F48FFF77CFFFB
:1008F4001E48FFF779FF29461D48FFF775FF1D4C79
:10090400E16A1D48FFF770FF216B1C48FFF76CFF7D
:10091400E16B1B48FFF768FF15F0800F0AD115F44F
:10092400004F0CD11748FFF75FFF06991648FFF7F1
:100934005BFFF8BD39461548FFF756FFEFE7314630
:100944001348FFF751FFEDE7AC140008BC1400088E
:10095400CC140008DC140008EC140008FC14000893
:100964000C1500081C1500082C1500083C1500087F
:100974004815000800ED00E0581500086815000847
:1009840078150008A8150008B01500088815000897
:100994009815000883691A888A4201D0002070479C
:1009A4000268033A012A03D80233836101207047A5
:1009B40000207047FEE700000F4B1A6842F0010266
:1009C4001A6059680D4A0A405A601A6822F0847203
:1009D40022F480321A601A6822F480221A605A685B
:1009E40022F4FE025A604FF41F029A60044B4FF047
:1009F40000629A60704700BF001002400000FFF8D8
:100A040000ED00E01F4B5B6803F00C03042B14D0D3
:100A1400082B16D01BB11C4B1C4A1A6002E01A4B5F
:100A24001A4A1A60174B5B68C3F30313184AD15C64
:100A3400154A1368CB4013607047134B134A1A606E
:100A4400F0E7104A53685268C3F38343023312F445
:100A5400803F0AD00B4A526812F4003F0BD00D4A73
:100A640002FB03F3084A1360DCE70A4A02FB03F3C0
:100A7400054A1360D6E7054A02FB03F3024A1360F2
:100A8400D0E700BF001002401400002000127A00DA
:100A9400F415000800093D0010B586B0FFF78EFC80
:100AA4000024029405230593394B0493FFF742FD78
:100AB40001A902A8FFF70AFE0DE0A100354B53F887
:100AC4002420002301F1006101F5F6310220FFF733
:100AD4008BFD0134E4B2A4F12903DBB2D02BECD8B2
:100AE40000240DE0A1002C4B53F82420002301F135
:100AF400006101F5F8310220FFF776FD0134E4B21C
:100B0400A4F12903DBB2D02BECD800240DE0A10022
:100B1400224B53F82420002301F1006101F5FA313E
:100B24000220FFF761FD0134E4B2A4F11903DBB242
:100B3400E02BECD800240DE0A100194B53F824203D
:100B4400002301F1006101F5FC310220FFF74CFDA7
:100B54000134E4B2A4F14103DBB2B82BECD8002495
:100B64000DE0A1000F4B53F82420002301F1006194
:100B740001F5FE310220FFF737FD0134E4B2A4F1A0
:100B84004103DBB2B82BECD8FFF7EEFCFEE700BF65
:100B940000EC01081800002040000020680000203C
:100BA40080000020C000002000B583B0204B9A696B
:100BB40042F001029A619B6903F001030193019BD6
:100BC4000320FFF713FC002211466FF00B00FFF720
:100BD4001FFC002211466FF00A00FFF719FC0022E7
:100BE40011466FF00900FFF713FC002211466FF065
:100BF4000400FFF70DFC002211466FF00300FFF71D
:100C040007FC002211466FF00100FFF701FC0022EF
:100C140011464FF0FF30FFF7FBFB064A536823F001
:100C2400E06343F00073536003B05DF804FB00BF5E
:100C3400001002400000014008B54FF40050FFF7D7
:100C440099FD08BD014B1868704700BF00010020E2
:100C540010B5431E0A44914200D110BD11F8014B56
:100C640003F8014FF7E730B5141E05469BB018464C
:100C740005DA8B234FF0FF302B601BB030BD4FF4EF
:100C84000273ADF80C300CBF234604F1FF3302931A
:100C940005934FF6FF7300910491ADF80E300246B0
:100CA4001E9B6946284600F073F8431CBCBF8B2387
:100CB4002B60002CE1D00022009B1A70DDE70000BD
:100CC40007B5009313460A46014603480068FFF738
:100CD400CAFF03B05DF804FB000100202DE9F047D2
:100CE4008E6882469E420C469046994637D88A8939
:100CF40012F4906F31D00223256809696F1A65696F
:100D040005EB450595FBF3F509F101033B449D42D1
:100D140038BF1D46530530D5294600F02BFB064647
:100D240050B90C234FF0FF30CAF80030A38943F0C8
:100D34004003A381BDE8F0873A462169FFF788FFA5
:100D4400A38923F4906343F08003A38126613E4486
:100D540026604E466561ED1BA5604E4500D94E46A2
:100D640032464146206800F09FFAA36800209B1B8E
:100D7400A36023681E442660DCE72A4600F054FB87
:100D840006460028E2D12169504600F0A7FAC8E7D8
:100D94002DE9F04F9DB003938B8980461D060C46C8
:100DA40016460FD50B696BB9402100F0E3FA2060B9
:100DB400206128B90C23C8F800304FF0FF30C7E099
:100DC400402363610023099320238DF829303023C5
:100DD4004FF0010B8DF82A3037463D4615F8013B9C
:100DE4000BB1252B3ED1B7EB060A0BD05346324646
:100DF40021464046FFF772FF013000F0A480099BB2
:100E0400534409933B78002B00F09D8000234FF05E
:100E1400FF32CDE90523049307938DF853301A93D9
:100E24002F46052217F8011B4F4800F02FFA049BA8
:100E3400D0B9D90644BF20228DF853201A0744BFE5
:100E44002B228DF853202A782A2A15D02F460020E9
:100E54000A25079A394611F8013B303B092B4DD935
:100E6400B8B10FE02F46B8E73F4A3D46801A0BFA67
:100E740000F018430490D3E7039A111D12680391FC
:100E8400002A01DB079204E0524243F00203079276
:100E940004933B782E2B0CD17B782A2B33D1039BE4
:100EA40002371A1D1B680392002BB8BF4FF0FF33A3
:100EB40005932E4D03223978284600F0E7F938B11E
:100EC4004023401B03FA00F0049B013703430493BF
:100ED4003978062226487E1C8DF8281000F0D6F9B1
:100EE400002838D0234B13BB039B073323F007039D
:100EF40008330393099B4B4409936DE705FB0232C6
:100F040001200F46A6E700230A2519460137059359
:100F1400384610F8012B303A092A03D9002BC8D0DF
:100F24000591C6E705FB012101230746F0E703AB62
:100F340000932246104B04A94046AFF30080B0F161
:100F4400FF3F8146D6D1A3895B063FF536AF0998AA
:100F54001DB0BDE8F08F03AB00932246064B04A9F5
:100F6400404600F081F8EAE7041600080A16000873
:100F74000E16000800000000E10C00082DE9F047FF
:100F840091461F468A680B6906469342B8BF1346CA
:100F9400C9F8003091F843200C46DDF8208012B1E6
:100FA4000133C9F800302368990642BFD9F80030EC
:100FB4000233C9F80030256815F0060507D104F19D
:100FC400190AE368D9F800209B1AAB4229DC94F88B
:100FD40043302268003318BF012392062ED404F153
:100FE400430239463046C047013021D02368E568C2
:100FF40003F00603042B18BF0025D9F800204FF096
:10100400000908BFAD1AA368226908BF25EAE5757F
:101014009342C4BF9B1AED181A344D451AD10020CF
:1010240008E00123524639463046C047013003D117
:101034004FF0FF30BDE8F0870135C2E73020E118FA
:1010440081F843005A1C94F845102244023382F874
:101054004310C4E70123224639463046C0470130D5
:10106400E6D009F10109D8E72DE9F04301F1430C79
:101074000C46097E85B06E291746064698460C9A9A
:1010840000F0B38022D8632936D00AD8002900F0B2
:10109400B980582900F0838004F1420584F8421095
:1010A40032E0642901D06929F6D120681368050665
:1010B40003F104012AD51B681160002B03DA2D22E9
:1010C4005B4284F843206F480A2239E0732900F018
:1010D4009D8008D86F2920D07029DDD1236843F082
:1010E4002003236003E0752917D07829D4D178230D
:1010F400654884F8453055E0136804F14205191D2C
:101104001B68116084F8423001238CE01B6810F0E6
:10111400400F116018BF1BB2CFE713682568181D74
:101124001060280601D51B6802E06806FBD51B8801
:101134006F2914BF0A2208225248002184F8431060
:101144006568002DA560C0F29580216821F0040136
:101154002160002B3DD1002D40F08E806546082A89
:101164000BD12368DB0708D5236962689A42DEBF86
:10117400302305F8013C05F1FF35ACEB0503236191
:10118400CDF800803B4603AA21463046FFF7F6FE21
:1011940001304DD14FF0FF3005B0BDE8F083394840
:1011A40084F84510136821681D1D1B6815600A0624
:1011B4000BD5CA0744BF41F0200121601BB9226846
:1011C40022F0200222601022B7E74D0648BF9BB2EE
:1011D400EFE76546B3FBF2F102FB1133C35C05F89C
:1011E400013D0B460029F5D1B9E713682568181DA0
:1011F4006169106028061B6801D5196002E06A065F
:10120400FBD51980002365462361B9E71368191DCE
:1012140011601D6862680021284600F037F808B1A3
:10122400401B606063682361002384F84330A7E7B0
:1012340023692A4639463046C0470130AAD023687C
:101244009B0713D4E068039B9842B8BF1846A3E7F2
:1012540001234A4639463046C04701309AD0013509
:10126400E368039A9B1AAB42F2DCEBE7002504F136
:101274001909F5E7002BACD1037804F1420584F891
:1012840042306CE7151600082616000810B5C9B2DE
:1012940002449042034601D1002303E01C7801304C
:1012A4008C42F6D1184610BD884210B501EB0203FA
:1012B40007D8421E99420AD011F8014B02F8014F97
:1012C400F8E78342F5D98118D21AD34200D110BD70
:1012D40013F8014D01F8014DF7E7000038B5054654
:1012E400002943D051F8043C0C1F002BB8BFE4186C
:1012F40000F0D0F81E4A1368104633B963601460D6
:101304002846BDE8384000F0C6B8A3420BD921688E
:101314006218934201BF1A685B68521822606360C6
:101324000460EDE713465A680AB1A242FAD9196873
:101334005818A0420BD12068014458188242196001
:10134400DED110685268014419605A60D8E702D9A6
:101354000C232B60D4E7206821188A4201BF11684E
:1013640052680918216062605C60C9E738BD00BF3B
:10137400F401002070B5CD1C25F0030508350C2DB3
:1013840038BF0C25002D064601DBA94203D90C23E6
:101394003360002070BD00F07DF8214A14682146B6
:1013A40091B9204C23681BB9304600F063F82060E3
:1013B4002946304600F05EF8431C24D10C23304605
:1013C400336000F068F8E4E70B685B1B18D40B2B60
:1013D4000FD90B60CC18CD50304600F05CF804F106
:1013E4000B00231D20F00700C31AD3D05A42E25049
:1013F400D0E74B688C4216BF636013600C46EBE782
:101404000C464968CCE7C41C24F00304A04205D070
:10141400211A304600F02EF80130CFD02560DBE7EA
:10142400F4010020F8010020F8B5074614460E46E2
:1014340021B9BDE8F8401146FFF79CBF22B9FFF778
:101444004DFF25462846F8BD00F026F8A0420FD2ED
:1014540021463846FFF78EFF05460028F2D0314674
:101464002246FFF7F5FB31463846FFF737FFE9E739
:101474003546E7E738B50023054C054608462360A2
:10148400FFF788F9431C02D1236803B12B6038BDF0
:10149400200200207047704751F8043C181F002BAD
:1014A400BCBF0B58C0187047537461636B206672DD
:1014B400616D653A0A000000205230203D2020254D
:1014C4003038580A00000000205231203D202025E9
:1014D4003038580A00000000205232203D202025D8
:1014E4003038580A00000000205233203D202025C7
:1014F4003038580A0000000020523132203D2025A7
:101504003038580A00000000204C52203D2020258D
:101514003038580A00000000205043203D20202588
:101524003038580A0000000020505352203D202536
:101534003038580A000000004653522F4641523AB0
:101544000A0000002043465352203D202025303815
:10155400580A00002048465352203D2020253038A8
:10156400580A00002044465352203D20202530389C
:10157400580A00002041465352203D20202530388F
:10158400580A0000204D4D464152203D2025303858
:10159400580A00002042464152203D202025303880
:1015A400580A00004D6973630A000000204C522F52
:1015B4004558435F52455455524E3D2025303858C6
:1015C4000A0000005B486172644661756C745D0AD0
:1015D400000000005B4275734661756C745D0A001F
:1015E4005B55736167654661756C745D0A00000044
:1015F40000000000000000000102030406070809BF
:10160400232D302B2000686C4C00656667454647E7
:10161400003031323334353637383941424344456A
:1016240046003031323334353637383961626364D9
:03163400656600E8
:101638007856341201FFFFFF1000000070010020EF
:101648000000000000A24A040100C0FF0E241000A0
:1016580001F03F000E241000FD0F00000E241000C2
:10166800010000000E24D0FFFDFFFFFF0F24D0FF74
:10167800FDFFFFFF0E24D0FF010000000E24D0FF65
:10168800FD0F00000E24100001F03F000E24100092
:101698000100C0FF0F24100001F0FFFF0E2410000E
:1016A800FDFF3F000E241000FD0FC0FF0F241000A7
:1016B8000100C0FF0E24100001F03F000E241000AE
:1016C800FD0F00000E241000010000000E24D0FFC2
:1016D80001F0FFFF0E241000FDFF3F000E24100054
:1016E800FD0FC0FF0E241000FDFFFFFF0F24D0FFE9
:1016F8000100C0FF2AA0000001F03F002AA000005E
:10170800FD0F00002AA00000010000002AA0C0FF71
:1017180001F0FFFF2AA00000FDFF3F002AA0000003
:10172800FD0FC0FF2AA00000FDFFFFFF2BA0C0FF98
:10173800040100200000000000000000000000007C
:101748000000000000000000000000000000000091
:101758000000000000000000000000000000000081
:101768000000000000000000000000000000000071
:101778000000000000000000000000000000000061
:101788000000000000000000000000000000000051
:081798000000000032547698B5
:040000050800010DE1
:00000001FF
